:020000040800F2
:10000000001000200118000891170008931700083D
:1000100000000000000000000000000000000000E0
:10002000000000000000000000000000951700081C
:100030000000000000000000971700089917000852
:10004000511800080000000051180008511800085D
:1000500051180008511800085118000851180008DC
:10006000000000005118000851180008511800083D
:10007000511800085118000851180008000000002D
:10008000511800080000000000000000511800088E
:10009000000000005118000851180008511800080D
:1000A000000000005118000800000000511800086E
:1000B0000000000000000000000000000000000040
:1000C00010B5064C2378002B07D1054B002B02D02E
:1000D000044800E000BF0123237010BD040000208D
:1000E00000000000AC180008044B10B5002B03D032
:1000F0000349044800E000BF10BDC04600000000F6
:1001000008000020AC180008002243088B4274D37A
:1001100003098B425FD3030A8B4244D3030B8B4208
:1001200028D3030C8B420DD3FF22090212BA030C11
:100130008B4202D31212090265D0030B8B4219D3F2
:1001400000E0090AC30B8B4201D3CB03C01A524112
:10015000830B8B4201D38B03C01A5241430B8B425A
:1001600001D34B03C01A5241030B8B4201D30B0343
:10017000C01A5241C30A8B4201D3CB02C01A52416A
:10018000830A8B4201D38B02C01A5241430A8B422D
:1001900001D34B02C01A5241030A8B4201D30B0216
:1001A000C01A5241CDD2C3098B4201D3CB01C01A30
:1001B000524183098B4201D38B01C01A524143093A
:1001C0008B4201D34B01C01A524103098B4201D328
:1001D0000B01C01A5241C3088B4201D3CB00C01A95
:1001E000524183088B4201D38B00C01A524143080D
:1001F0008B4201D34B00C01A5241411A00D2014632
:10020000524110467047FFE701B5002000F006F8A4
:1002100002BDC0460029F7D076E770477047C04658
:1002200010B5040000F02AFEFA218900FFF76CFFE8
:1002300000F036FA012000222100404200F000FACE
:10024000002010BD10B5064A136810210B4313603F
:100250000020FFF7E5FF01F005FA002010BDC046C1
:1002600000200240024A1368013313607047C04601
:1002700020000020014B18687047C0462000002075
:1002800030B583B00400002301930368996803220A
:100290000A40012A0ED09968204A114212D19A6868
:1002A00001210A439A601E4B18681E49FFF72CFF74
:1002B000019015E01A68D2072DD4DA681204EAD545
:1002C000002008E0636C102213436364A36C0F3AB0
:1002D0001343A364012003B030BD019B013B019394
:1002E000019B002BF9D1FFF7C5FF050023681B68B0
:1002F000DB070ED4FFF7BEFF401B0228F6D9636C64
:10030000102213436364A36C0F3A1343A3640120C8
:10031000E1E70020DFE70020DDE7C04617000080AE
:100320000000002040420F0070B5041E00D1B0E074
:10033000436C002B7DD0636CDB0600D5A3E0216805
:100340008B6804221A4000D09DE0636C5248034041
:100350000630FF3003436364886803230340012BA6
:100360006DD0CB6818208343A0680343CB6021681D
:100370000B699B009B08606803430B612168CB6895
:1003800046480340CB60A3699B03E169C9030B4363
:10039000216A48030343606B012857D08020400145
:1003A0000343E06803432069022851D01343226BC2
:1003B00052001343626A012A4CD0A26AC221FF3163
:1003C0008A4202D0E16A0A4313432168CA681A4389
:1003D000CA60A26B802149058A420DD0012A0BD048
:1003E000022A09D0032A07D0042A05D0052A03D0FF
:1003F000062A01D0072A0AD12068416907229143C1
:10040000416120684169A56B2A400A434261226824
:10041000D26823490A409A422BD0636C122293433C
:10042000023A13436364A36C0F3A1343A36401209D
:100430002EE083644022835401F02CF97BE70B68A3
:10044000DB079BD4CB681B0498D48AE71000A7E78E
:100450000422ABE7002903D1802252021343ACE708
:10046000626C20210A436264A26C1F390A43A264B1
:10047000A3E70023A364636C03229343023A13436C
:100480006364002004E0636C102213436364012062
:1004900070BD0120FCE7C046FDFEFFFF1902FEFF14
:1004A000E7FF3F8310B5040003689B685B0723D414
:1004B0004023C35C012B21D040230122C254C369D5
:1004C000012B14D10020636C0D4A1A4080235B007D
:1004D000134363640023A3644022A3542368243A93
:1004E0001A602268936804210B43936010BDFFF7E4
:1004F000C7FE0028E7D0F9E70220F7E70220F5E77A
:10050000FEF0FFFF0368186C7047000030B583B041
:100510000400002301934033C35C012B00D181E030
:1005200040230122C25403689A68520770D43E4A9D
:100530004868904253D09A6A01200D68A84002434F
:100540009A62A36B8022520593421ED0012B1CD0CD
:10055000022B1AD0032B18D0042B16D0052B14D045
:10056000062B12D0072B10D02268506907230340B6
:100570008868984209D050690723984350612068E1
:1005800042698D682B40134343610B681A00103A8F
:10059000012A01D9002040E0244A1268102B09D01A
:1005A0008023DB031343214A13600B68102B04D014
:1005B000002032E080231B04F4E71D4B18681D491E
:1005C000FFF7A2FD830018184300019302E0019B8E
:1005D000013B0193019B002BF9D100201DE09A6A99
:1005E00001200D68A84082439A620B681A00103AF5
:1005F000012A01D9002010E00C4A1268102B05D006
:100600000D4B1340094A1360002006E00B4BF8E73E
:10061000436C202213434364012040230022E25410
:1006200003B030BD0220FBE70110000008270140A5
:100630000000002040420F00FFFFBFFFFFFF7FFFD1
:1006400070B5002811DB8408134DC034A400625932
:1006500003231840C000FC331E008640B2438901CA
:100660000B4083401343635170BDC0B20F22024060
:10067000083A920806329200084BD3185D680324AA
:100680002040C000FF2214008440A54389010A4095
:1006900082402A435A60E7E700E100E000ED00E015
:1006A00001380A4B98420FD8094A50600948036A3A
:1006B0001B021B0AC02109060B430362002393603F
:1006C00007331360002070470120FCE7FFFFFF00A5
:1006D00010E000E000ED00E0F0B5C64600B582B0E5
:1006E000002338E0032600E00026AE4035003D43FD
:1006F0000234A400554EA551554C25684246D443BA
:100700002E0026404A68D20302D5424615432E00E9
:100710004F4D2E606D682E0026404A68920302D528
:10072000424615432E004A4D6E60AD682E002640AD
:100730004A68D20202D5424615432E00444DAE60AF
:10074000ED682C404A68920202D542462A431400C2
:100750003F4AD46001330A681400DC4071D001259F
:100760009D402A409046F5D04C68022C01D0122CB6
:100770000ED1DC080834A400275807261E40B60016
:100780000F22B24097430A69B24016003E432650FA
:1007900002685F0003242600BE40F64332409446C0
:1007A0004A681440BC406246144304604C68621EB0
:1007B000012A03D9112C01D0122C10D184683440A5
:1007C000A446CC68BC406246144384604468AC4391
:1007D0004A681209012515409D4025434560C468BB
:1007E00026408C68BC403443C4604A68D200B1D50E
:1007F000184DAE6901242643AE61AD692C400194C9
:10080000019C9C08A51CAD00104EAF5903251D404E
:10081000AD000F26AE40B7439026F605B04200D19A
:1008200062E70D4EB04208D00C4EB04207D00C4EDD
:10083000B04200D156E7052657E7012655E70226C4
:1008400053E702B004BC9046F0BDC0460000014032
:100850000004014000100240000400480008004865
:10086000000C004870B582B004000368DB0726D591
:10087000AE4B5A680C231340042B18D0AB4B5A686C
:100880000C231340082B0ED06368012B3CD0002BA7
:1008900051D1A64B1A68A6490A401A601A68A549A0
:1008A0000A401A6036E0A14B5B68DB03ECD59F4B36
:1008B0001B689B0303D56368002B00D1ECE1236820
:1008C0009B0773D5994B5B680C221A425DD0974BFE
:1008D0005A680C231340082B53D0E368002B00D137
:1008E00086E0924A136801210B431360FFF7C2FCB4
:1008F00005008E4B1B689B0771D4FFF7BBFC401BA8
:100900000228F6D90320CAE1884A116880235B02D5
:100910000B4313606368002B25D0FFF7ABFC050089
:10092000824B1B689B03CAD4FFF7A4FC401B6428BE
:10093000F6D90320B3E1052B09D07C4B1A687C491A
:100940000A401A601A687B490A401A60E2E7774B4E
:1009500019688022D2020A431A6019688022520262
:100960000A431A60D6E7FFF785FC05006F4B1B684A
:100970009B03A4D5FFF77EFC401B6428F6D9032017
:100980008DE16A4B5B68DB03A7D4684B1B689B0750
:1009900004D5E368012B01D0012080E163490B6895
:1009A000F82293432269D20013430B6023681B078C
:1009B00044D5E369002B2ED05C4A536A01210B43D6
:1009C0005362FFF757FC0500584B5B6A9B0735D411
:1009D000FFF750FC401B0228F6D903205FE1534982
:1009E0000B68F82293432269D20013430B60DDE7C2
:1009F0004E4A136801218B431360FFF73BFC05004F
:100A00004A4B1B689B07D1D5FFF734FC401B0228DB
:100A1000F6D9032043E1454A536A01218B435362CF
:100A2000FFF728FC0500414B5B6A9B0706D5FFF7E3
:100A300021FC401B0228F6D9032030E123685B0724
:100A400000D47FE0394BDB69DB001DD4374AD16924
:100A5000802040050143D161D36903400193019B8C
:100A60000125354B1B68DB0510D5A368012B21D070
:100A7000002B36D12D4B1A6A01218A431A621A6A59
:100A800003318A431A621AE00025EAE72A4A11680C
:100A900080235B000B431360FFF7ECFB0600264B43
:100AA0001B68DB05E1D4FFF7E5FB801B6428F6D962
:100AB0000320F4E01D4A136A01210B431362A3686B
:100AC000002B24D0FFF7D6FB0600184B1B6A9B07B0
:100AD00036D4FFF7CFFB801B184B9842F5D9032083
:100AE000DDE0052B09D0114B1A6A01218A431A62F5
:100AF0001A6A03318A431A62E1E70C4B1A6A04212D
:100B00000A431A621A6A03390A431A62D7E7FFF7DF
:100B1000B1FB0600054B1B6A9B0711D5FFF7AAFB2B
:100B2000801B064B9842F5D90320B8E00010024024
:100B3000FFFFFEFFFFFFFBFF007000408813000077
:100B4000012D33D02368DB0610D56369012B33D028
:100B5000053351D1544A536B04218B435363536B78
:100B6000F4318B43A169C9000B435363236A002B03
:100B700000D193E04C4A51680C220A40082A00D167
:100B80008FE0022B4FD0484A136848490B4013604E
:100B9000FFF770FB0400444B1B689B017AD5FFF7FD
:100BA00069FB001B0228F6D9032078E03E4AD3698E
:100BB0003F490B40D361C5E73B4B5A6B04210A43C5
:100BC0005A635A6B03390A435A63FFF753FB050014
:100BD000354B5B6B9B0706D4FFF74CFB401B022891
:100BE000F6D903205BE030494B6BF8229343A269AE
:100BF000D20013434B63B9E72B4B5A6B04210A43D2
:100C00005A635A6B03398A435A63FFF733FB050073
:100C1000254B5B6B9B07A9D5FFF72CFB401B0228DC
:100C2000F6D903203BE0204A136820490B401360AB
:100C3000FFF720FB05001C4B1B689B0106D5FFF747
:100C400019FB401B0228F6D9032028E0164BDA6A6C
:100C50000F218A43E16A0A43DA625A6815490A4059
:100C6000A16A606A01430A435A60196880225204EB
:100C70000A431A60FFF7FEFA04000B4B1B689B0146
:100C800006D4FFF7F7FA001B0228F6D9032006E086
:100C9000002004E0002002E0012000E0002002B07B
:100CA00070BD0120FBE7C04600100240FFFFFFFEC1
:100CB000FFFFFFEFFFFFC2FF30B589B004AA174B5B
:100CC000180032C832C2110002680A606A46103346
:100CD00013CB13C21B681360114B5A680C231340CB
:100CE000082B19D1910C0733194004A8445C0C4916
:100CF000C96A0B406946C95CD30308D463011B1B56
:100D00009801C01AC0000419200209B030BD05487E
:100D1000FFF7FAF96043F8E70248F6E7C41800085D
:100D20000010024000127A0070B505000C004D4B17
:100D30001A68012313408B420BD24A490B680122E7
:100D4000934323430B600B681A40A24201D0012059
:100D500070BD2B689B0706D5434A5368F0218B432F
:100D6000A9680B4353602B68DB074BD56B68012BDD
:100D700020D0022B24D03C4A126892076FD53A4902
:100D80004A680320824313434B60FFF773FA06005F
:100D90006B68012B1AD0022B26D0334B5B680C22D8
:100DA0001A422FD0FFF766FA801B304B9842F4D9D5
:100DB0000320CDE72C4A12689203E0D40120C7E754
:100DC000294A12689201DAD40120C1E7264B5A68F9
:100DD0000C231340042B15D0FFF74CFA801B234B38
:100DE0009842F3D90320B3E71F4B5A680C231340F2
:100DF000082B07D0FFF73EFA801B1C4B9842F3D913
:100E00000320A5E7174B1A6801231340A3420BD90F
:100E100014490B680122934323430B600B681A406B
:100E2000A24201D0012093E72B685B0706D50E4A4A
:100E300053680F490B40E9680B435360FFF73CFFD1
:100E4000094B5A6812090F2313400A4AD35CD84051
:100E5000094B18600020FFF7E3F9002078E7012034
:100E600076E7C046002002400010024088130000D0
:100E7000FFF8FFFFE418000800000020014B18688D
:100E80007047C0460000002030B5036A012293433A
:100E90000362036A426884697325AC430D682C437E
:100EA0000225AB438D682B43114DA84205D0114D4F
:100EB000A84202D0104DA84205D10825AB43CD6809
:100EC0002B430425AB430A4DA84205D0094DA84247
:100ED00002D0094DA84205D1084D2A404D692A4348
:100EE0008D692A43426084614A684263036230BD6F
:100EF000002C01400044014000480140FFFCFFFF7E
:100F000070B5036A184A13400362036A4268C469F1
:100F10007325AC430E682643144C23408C6824028E
:100F20002343134CA04216D0114CA04205D0114CC3
:100F3000A04202D0104CA04207D1104C14404A6984
:100F4000120122438C6925012A434260C6614A6826
:100F5000C263036270BD0A4C1C40CB681B02234372
:100F6000084C2340E0E7C046FFFEFFFFFFFDFFFF08
:100F7000002C01400044014000480140FFCFFFFF2A
:100F8000FFF7FFFFFFFBFFFF30B5036A114A134075
:100F90000362026A4368C4690F4D2C400D682D023C
:100FA0002C430E4D15408A6812032A430C4DA8426B
:100FB00005D00C4DA84202D00B4DA84204D10B4DD8
:100FC0002B404D69AD012B434360C4614B68036402
:100FD000026230BDFFEFFFFFFF8CFFFFFFDFFFFF6F
:100FE000002C01400044014000480140FFBFFFFFCA
:100FF00030B5036A046A0125AC4304628469EF35A5
:10100000AC43120122430A24A343194382610162C3
:1010100030BD000030B5036A1024A3430362846925
:10102000036A054D2C4012032243A024A343090167
:1010300019438261016230BDFF0FFFFF8368702298
:1010400093430722114319438160704770470000A2
:1010500003681A4A904202D0194A904203D1702282
:1010600093434A681343154A90420BD0144A904266
:1010700008D0144A904205D0134A904202D0134A35
:10108000904203D1124A1340CA681343802293430B
:101090004A69134303608B68C3620B688362074B22
:1010A000984205D0084B984202D0084B984201D193
:1010B0000B690363012343617047C046002C014064
:1010C000000400400020004000440140004801406E
:1010D000FFFCFFFF70B5041E14D03D23C35C002B42
:1010E0000AD03D2502236355211D2068FFF7B0FF7C
:1010F00001236355002070BD3C330022C25400F030
:10110000F9FAEEE70120F6E770B5041E14D03D238E
:10111000C35C002B0AD03D2502236355211D2068A6
:10112000FFF796FF01236355002070BD3C3300227A
:10113000C254FFF78BFFEEE70120F6E770B5036AB4
:10114000102293430362036A42688469164D2C405F
:101150000D682D0225432024A3438C6824012343DA
:10116000124CA04216D0114CA04205D0104CA04207
:1011700002D0104CA04207D10F4C14404A69920093
:1011800022438C69A6003243426085614A688263CB
:10119000036270BD8024A3431C00CB681B01234362
:1011A0004024A343DFE7C046FF8CFFFF002C014033
:1011B0000044014000480140FFF3FFFF70B5040008
:1011C0000D003C23C35C012B69D03C230121C15499
:1011D00001330131C154042A37D019D9082A4AD021
:1011E0000C2A2AD129000068FFF7CEFE2268D169B7
:1011F00080231B010B43D3612268D36929490B402B
:10120000D3612168CB692A6912021343CB6114E0D0
:10121000002A12D129000068FFF736FE2268936980
:1012200008210B4393612268936904398B439361CE
:101230002268936929690B4393613D230122E2549B
:10124000013B0022E254002070BD29000068FFF736
:1012500075FF2268916980231B010B43936122680B
:10126000936910490B40936121688B692A691202C6
:1012700013438B61E1E729000068FFF741FE226814
:10128000D36908210B43D3612268D36904398B43A6
:10129000D3612268D36929690B43D361CDE702206A
:1012A000D2E7C046FFFBFFFF30B58468034D2C40FA
:1012B0001B021A4311432143816030BDFF00FFFF31
:1012C00010B504003C23C35C012B00D17FE03C231C
:1012D0000122C25401330132C254026893683D486E
:1012E000034093600B68402B5DD010D9702B43D026
:1012F00020D8502B4DD0602B36D1CA684968206861
:10130000FFF788FE60212068FFF798FE2CE0102B85
:1013100053D008D9202B55D0302B25D1302120682F
:10132000FFF78CFE20E0002B1ED100212068FFF784
:1013300085FE19E080225201934210D08022920152
:10134000934211D1CB684A6889682068FFF7ACFFE7
:10135000226891688023DB010B43936004E02268DC
:10136000936807218B4393603D230122E254013BA4
:101370000022E254002010BDCB684A6889682068CA
:10138000FFF792FF2268936877218B430B439360AA
:10139000EAE7CA6849682068FFF72AFE50212068FA
:1013A000FFF74CFEE0E7CA6849682068FFF720FEB7
:1013B00040212068FFF742FED6E710212068FFF7A2
:1013C0003DFED1E720212068FFF738FECCE7022060
:1013D000D1E7C0468800FFFF10B501248C40036AA6
:1013E000A3430362036A8A401A43026210BD0000ED
:1013F00010B5040001220068FFF7EEFF23680A4AD7
:10140000934205D0094A934202D0094A934204D13B
:10141000596C802212020A435A642268136801211F
:101420000B431360002010BD002C0140004401401C
:1014300000480140F0B53C23C35C012B1ED03C2288
:10144000012585543D2402230355066873687027DF
:10145000BB437360066873680F683B43736006683C
:10146000B3688027BB43B3600668B36849680B4321
:10147000B3600555002383540020F0BD0220FCE733
:1014800082B0064A5169802080020143516153694C
:1014900003400193019B02B07047C0460010024018
:1014A00010B584B00C22002101A800F0F7F9124C0D
:1014B000124B236000236360A360E360012222617A
:1014C00004216161A361E36122626362C221FF3191
:1014D000A162E362236362632000FEF725FF062317
:1014E0000193802252010292039301A92000FFF789
:1014F0000DF804B010BDC046AC000020002401402F
:1015000030B587B01022002102A800F0C7F90822E8
:101510000021684600F0C2F90D4C0E4B23600025F7
:101520006560A560E5602561A5612000FFF7D2FD3B
:1015300080235B01029302A92000FFF7C1FE009502
:10154000019569462000FFF775FF07B030BDC04622
:10155000240000200004004030B589B01C22002186
:1015600001A800F09BF9104C104B23609F2363608F
:101570000025A5600E4BE3602561A5612000FFF703
:10158000A9FD2000FFF7C0FD60230193029503959C
:101590000595002201A92000FFF710FE200000F0B1
:1015A000CFF809B030BDC0466800002000200040E0
:1015B000E703000010B590B02C22002105A800F030
:1015C0006DF9102410220021684600F067F91223FB
:1015D0000493113B0793099308940A9404A8FFF716
:1015E00041F9072300930023019302930393002101
:1015F0006846FFF799FB10B010BD000010B5FEF76C
:1016000021FEFFF7D7FFFFF73BFFFFF749FFFFF78B
:1016100077FFFFF7A1FF0E48FEF744FF00210D48BA
:10162000FFF7E6FE09E00C4B18682921FEF76CFD78
:1016300032300A4B18600A4B58630548FEF762FFC8
:10164000054B18602928EED829221A60EBE7C0461E
:10165000AC0000206800002064000020A8000020EA
:101660000020004082B00A4B996901221143996120
:1016700099690A400092009ADA69802149050A4373
:10168000DA61DB690B400193019B02B07047C046F1
:101690000010024010B588B004001422002103A8F5
:1016A00000F0FCF82268114B9A4201D008B010BD3E
:1016B0000F4B996980208000014399619A6902402B
:1016C0000192019A5A69802189020A435A615B6931
:1016D0000B400293029B402303933D3B04937138DC
:1016E000FF3803A9C005FEF7F7FFDFE7002401403C
:1016F0000010024082B003680E4A934204D00E4AA2
:1017000093420BD002B070470C4AD16902231943AF
:10171000D161D26913400093009BF3E7074AD16976
:10172000802040000143D161D36903400193019BB4
:10173000E8E7C046000400400020004000100240DE
:1017400010B586B004001422002101A800F0A6F80C
:1017500022680D4B9A4201D006B010BD0B4A516968
:101760008020800201435161536903400093009B34
:10177000102301930E3B029302330593902001A99D
:10178000C005FEF7A9FFE7E7002000400010024077
:101790007047FEE77047704710B5FEF763FD10BD58
:1017A000114B1A6801210A431A605A680F48024017
:1017B0005A601A680E4802401A601A680D480240C2
:1017C0001A605A680C4802405A60DA6A0F20824355
:1017D000DA621A6B094802401A635A6B8A435A63E9
:1017E00000229A607047C046001002400CB8FF0803
:1017F000FFFFF6FEFFFFFBFFFFFFC0FFECFEFFFF5A
:101800000D4885460D480E490E4A002302E0D45883
:10181000C4500433C4188C42F9D30B4A0B4C002338
:1018200001E013600432A242FBD3FFF7B9FF00F0DE
:1018300011F8FFF7E3FEFEE7001000200000002093
:10184000040000200419000804000020F800002013
:10185000FEE7000070B500260C4D0D4C641BA41073
:10186000A64209D1002600F021F80A4D0A4C641B5B
:10187000A410A64205D170BDB300EB5898470136BD
:10188000EEE7B300EB5898470136F2E7FC18000882
:10189000FC180008FC1800080019000803001218C2
:1018A000934200D1704719700133F9E7F8B5C0468B
:1018B000F8BC08BC9E467047F8B5C046F8BC08BCEA
:0418C0009E46704789
:1018C40002030405060708090A0B0C0D0E0F10107D
:1018D4000102030405060708090A0B0C0D0E0F107C
:1018E40000000000000000000102030406070809CC
:0818F4000000000001020304E2
:0418FC00E9000008F7
:04190000C10000081A
:0419040000127A0053
:0400000508001801D6
:00000001FF
